{
  "_format": "hh-sol-artifact-1",
  "contractName": "GreenAntCore",
  "sourceName": "contracts/GreenAntCore.sol",
  "abi": [
    {
      "inputs": [
        {
          "internalType": "address",
          "name": "_admin",
          "type": "address"
        },
        {
          "internalType": "address",
          "name": "_maincollection",
          "type": "address"
        }
      ],
      "stateMutability": "nonpayable",
      "type": "constructor"
    },
    {
      "anonymous": false,
      "inputs": [
        {
          "indexed": false,
          "internalType": "string",
          "name": "projectId",
          "type": "string"
        }
      ],
      "name": "ProjectDeployed",
      "type": "event"
    },
    {
      "inputs": [],
      "name": "admin",
      "outputs": [
        {
          "internalType": "address",
          "name": "",
          "type": "address"
        }
      ],
      "stateMutability": "view",
      "type": "function"
    },
    {
      "inputs": [
        {
          "internalType": "uint256",
          "name": "tokenId",
          "type": "uint256"
        }
      ],
      "name": "burn",
      "outputs": [],
      "stateMutability": "nonpayable",
      "type": "function"
    },
    {
      "inputs": [],
      "name": "carbonToken",
      "outputs": [
        {
          "internalType": "contract IGAToken",
          "name": "",
          "type": "address"
        }
      ],
      "stateMutability": "view",
      "type": "function"
    },
    {
      "inputs": [
        {
          "internalType": "address",
          "name": "_newAdmin",
          "type": "address"
        }
      ],
      "name": "changeAdmin",
      "outputs": [],
      "stateMutability": "nonpayable",
      "type": "function"
    },
    {
      "inputs": [
        {
          "internalType": "string",
          "name": "_baseUri",
          "type": "string"
        }
      ],
      "name": "changeBaseUri",
      "outputs": [],
      "stateMutability": "nonpayable",
      "type": "function"
    },
    {
      "inputs": [
        {
          "internalType": "address",
          "name": "newManager",
          "type": "address"
        }
      ],
      "name": "changeManager",
      "outputs": [],
      "stateMutability": "nonpayable",
      "type": "function"
    },
    {
      "inputs": [
        {
          "internalType": "string",
          "name": "_projectId",
          "type": "string"
        },
        {
          "internalType": "address[]",
          "name": "recepients",
          "type": "address[]"
        },
        {
          "internalType": "uint256[]",
          "name": "recepientShares",
          "type": "uint256[]"
        },
        {
          "internalType": "address",
          "name": "_promoter",
          "type": "address"
        },
        {
          "internalType": "uint256",
          "name": "_numberMaxTree",
          "type": "uint256"
        }
      ],
      "name": "deployProject",
      "outputs": [],
      "stateMutability": "nonpayable",
      "type": "function"
    },
    {
      "inputs": [
        {
          "internalType": "bytes32",
          "name": "role",
          "type": "bytes32"
        },
        {
          "internalType": "address",
          "name": "account",
          "type": "address"
        }
      ],
      "name": "grantRole",
      "outputs": [],
      "stateMutability": "nonpayable",
      "type": "function"
    },
    {
      "inputs": [],
      "name": "mainCollection",
      "outputs": [
        {
          "internalType": "contract INFTreeCollection",
          "name": "",
          "type": "address"
        }
      ],
      "stateMutability": "view",
      "type": "function"
    },
    {
      "inputs": [],
      "name": "pause",
      "outputs": [],
      "stateMutability": "nonpayable",
      "type": "function"
    },
    {
      "inputs": [
        {
          "internalType": "string",
          "name": "",
          "type": "string"
        }
      ],
      "name": "project",
      "outputs": [
        {
          "internalType": "string",
          "name": "projectId",
          "type": "string"
        },
        {
          "internalType": "uint256",
          "name": "firstTkId",
          "type": "uint256"
        },
        {
          "internalType": "uint256",
          "name": "lastTkId",
          "type": "uint256"
        },
        {
          "internalType": "address",
          "name": "promoter",
          "type": "address"
        }
      ],
      "stateMutability": "view",
      "type": "function"
    },
    {
      "inputs": [
        {
          "internalType": "address",
          "name": "account",
          "type": "address"
        },
        {
          "internalType": "uint256",
          "name": "amount",
          "type": "uint256"
        }
      ],
      "name": "redeem",
      "outputs": [],
      "stateMutability": "nonpayable",
      "type": "function"
    },
    {
      "inputs": [
        {
          "internalType": "bytes32",
          "name": "role",
          "type": "bytes32"
        },
        {
          "internalType": "address",
          "name": "account",
          "type": "address"
        }
      ],
      "name": "renounceRole",
      "outputs": [],
      "stateMutability": "nonpayable",
      "type": "function"
    },
    {
      "inputs": [
        {
          "internalType": "bytes32",
          "name": "role",
          "type": "bytes32"
        },
        {
          "internalType": "address",
          "name": "account",
          "type": "address"
        }
      ],
      "name": "revokeRole",
      "outputs": [],
      "stateMutability": "nonpayable",
      "type": "function"
    },
    {
      "inputs": [
        {
          "internalType": "address",
          "name": "_token",
          "type": "address"
        }
      ],
      "name": "setGAToken",
      "outputs": [],
      "stateMutability": "nonpayable",
      "type": "function"
    },
    {
      "inputs": [
        {
          "internalType": "address",
          "name": "account",
          "type": "address"
        },
        {
          "internalType": "uint256",
          "name": "amount",
          "type": "uint256"
        },
        {
          "internalType": "string",
          "name": "_project",
          "type": "string"
        },
        {
          "internalType": "uint256",
          "name": "tkId",
          "type": "uint256"
        }
      ],
      "name": "treeDeathCompensate",
      "outputs": [],
      "stateMutability": "nonpayable",
      "type": "function"
    },
    {
      "inputs": [],
      "name": "unpause",
      "outputs": [],
      "stateMutability": "nonpayable",
      "type": "function"
    }
  ],
  "bytecode": "0x60806040523480156200001157600080fd5b50604051620026af380380620026af83398181016040528101906200003791906200020e565b600073ffffffffffffffffffffffffffffffffffffffff168273ffffffffffffffffffffffffffffffffffffffff1603620000a9576040517f08c379a0000000000000000000000000000000000000000000000000000000008152600401620000a090620002dc565b60405180910390fd5b600073ffffffffffffffffffffffffffffffffffffffff168173ffffffffffffffffffffffffffffffffffffffff16036200011b576040517f08c379a000000000000000000000000000000000000000000000000000000000815260040162000112906200034e565b60405180910390fd5b80600160006101000a81548173ffffffffffffffffffffffffffffffffffffffff021916908373ffffffffffffffffffffffffffffffffffffffff160217905550816000806101000a81548173ffffffffffffffffffffffffffffffffffffffff021916908373ffffffffffffffffffffffffffffffffffffffff160217905550505062000370565b600080fd5b600073ffffffffffffffffffffffffffffffffffffffff82169050919050565b6000620001d682620001a9565b9050919050565b620001e881620001c9565b8114620001f457600080fd5b50565b6000815190506200020881620001dd565b92915050565b60008060408385031215620002285762000227620001a4565b5b60006200023885828601620001f7565b92505060206200024b85828601620001f7565b9150509250929050565b600082825260208201905092915050565b7f50726f6a6563744465706c6f7965723a2061646d696e2061646472657373206360008201527f616e6e6f74206265203000000000000000000000000000000000000000000000602082015250565b6000620002c4602a8362000255565b9150620002d18262000266565b604082019050919050565b60006020820190508181036000830152620002f781620002b5565b9050919050565b7f636f6c6c656374696f6e20616464726573732063616e6e6f7420626520300000600082015250565b600062000336601e8362000255565b91506200034382620002fe565b602082019050919050565b60006020820190508181036000830152620003698162000327565b9050919050565b61232f80620003806000396000f3fe608060405234801561001057600080fd5b506004361061010b5760003560e01c8063689b5e3c116100a25780638f39a080116100715780638f39a08014610240578063a3fbbaae14610273578063ace16b671461028f578063d547741f146102ab578063f851a440146102c75761010b565b8063689b5e3c146101de57806382a71ef2146101fc5780638456cb591461021a5780638f283970146102245761010b565b806336568abe116100de57806336568abe146101805780633f4ba83a1461019c57806342966c68146101a6578063492d306b146101c25761010b565b80631e9a695014610110578063237c7a5d1461012c57806328c84b2e146101485780632f2ff15d14610164575b600080fd5b61012a60048036038101906101259190611271565b6102e5565b005b610146600480360381019061014191906113f7565b610378565b005b610162600480360381019061015d9190611605565b610474565b005b61017e6004803603810190610179919061170a565b6108e8565b005b61019a6004803603810190610195919061170a565b61097b565b005b6101a4610a0e565b005b6101c060048036038101906101bb919061174a565b610a92565b005b6101dc60048036038101906101d79190611777565b610b22565b005b6101e6610bb2565b6040516101f3919061181f565b60405180910390f35b610204610bd8565b604051610211919061185b565b60405180910390f35b610222610bfe565b005b61023e60048036038101906102399190611876565b610c82565b005b61025a60048036038101906102559190611777565b610dc2565b60405161026a9493929190611940565b60405180910390f35b61028d60048036038101906102889190611876565b610eb0565b005b6102a960048036038101906102a49190611876565b610f40565b005b6102c560048036038101906102c0919061170a565b611112565b005b6102cf6111a5565b6040516102dc919061198c565b60405180910390f35b600260009054906101000a900473ffffffffffffffffffffffffffffffffffffffff1673ffffffffffffffffffffffffffffffffffffffff16631e9a695083836040518363ffffffff1660e01b81526004016103429291906119a7565b600060405180830381600087803b15801561035c57600080fd5b505af1158015610370573d6000803e3d6000fd5b505050505050565b806003836040516103899190611a0c565b908152602001604051809103902060020154116103db576040517f08c379a00000000000000000000000000000000000000000000000000000000081526004016103d290611a6f565b60405180910390fd5b600260009054906101000a900473ffffffffffffffffffffffffffffffffffffffff1673ffffffffffffffffffffffffffffffffffffffff1663237c7a5d858585856040518563ffffffff1660e01b815260040161043c9493929190611a8f565b600060405180830381600087803b15801561045657600080fd5b505af115801561046a573d6000803e3d6000fd5b5050505050505050565b3373ffffffffffffffffffffffffffffffffffffffff1660008054906101000a900473ffffffffffffffffffffffffffffffffffffffff1673ffffffffffffffffffffffffffffffffffffffff1614610502576040517f08c379a00000000000000000000000000000000000000000000000000000000081526004016104f990611b4d565b60405180910390fd5b6000600160009054906101000a900473ffffffffffffffffffffffffffffffffffffffff1673ffffffffffffffffffffffffffffffffffffffff166318160ddd6040518163ffffffff1660e01b8152600401602060405180830381865afa158015610571573d6000803e3d6000fd5b505050506040513d601f19601f820116820180604052508101906105959190611b82565b905060008282106105db576040517f08c379a00000000000000000000000000000000000000000000000000000000081526004016105d290611bfb565b60405180910390fd5b845186511461061f576040517f08c379a000000000000000000000000000000000000000000000000000000000815260040161061690611c8d565b60405180910390fd5b60005b8551816bffffffffffffffffffffffff1610156106825785816bffffffffffffffffffffffff168151811061065a57610659611cad565b5b60200260200101518261066d9190611d0b565b9150808061067a90611d57565b915050610622565b8382146106c4576040517f08c379a00000000000000000000000000000000000000000000000000000000081526004016106bb90611dfd565b60405180910390fd5b600090505b8651816bffffffffffffffffffffffff1610156107d257600160009054906101000a900473ffffffffffffffffffffffffffffffffffffffff1673ffffffffffffffffffffffffffffffffffffffff166394bf804d87836bffffffffffffffffffffffff168151811061073f5761073e611cad565b5b602002602001015189846bffffffffffffffffffffffff168151811061076857610767611cad565b5b60200260200101516040518363ffffffff1660e01b815260040161078d929190611e1d565b600060405180830381600087803b1580156107a757600080fd5b505af11580156107bb573d6000803e3d6000fd5b5050505080806107ca90611d57565b9150506106c9565b60405180608001604052808981526020016001856107f09190611d0b565b81526020018581526020018673ffffffffffffffffffffffffffffffffffffffff168152506003896040516108259190611a0c565b908152602001604051809103902060008201518160000190816108489190612048565b50602082015181600101556040820151816002015560608201518160030160006101000a81548173ffffffffffffffffffffffffffffffffffffffff021916908373ffffffffffffffffffffffffffffffffffffffff1602179055509050507f7022708019b40a24773d95757722f831d299567720443391f8ea456c02523c52886040516108d6919061211a565b60405180910390a15050505050505050565b600260009054906101000a900473ffffffffffffffffffffffffffffffffffffffff1673ffffffffffffffffffffffffffffffffffffffff16632f2ff15d83836040518363ffffffff1660e01b815260040161094592919061214b565b600060405180830381600087803b15801561095f57600080fd5b505af1158015610973573d6000803e3d6000fd5b505050505050565b600260009054906101000a900473ffffffffffffffffffffffffffffffffffffffff1673ffffffffffffffffffffffffffffffffffffffff166336568abe83836040518363ffffffff1660e01b81526004016109d892919061214b565b600060405180830381600087803b1580156109f257600080fd5b505af1158015610a06573d6000803e3d6000fd5b505050505050565b600260009054906101000a900473ffffffffffffffffffffffffffffffffffffffff1673ffffffffffffffffffffffffffffffffffffffff16633f4ba83a6040518163ffffffff1660e01b8152600401600060405180830381600087803b158015610a7857600080fd5b505af1158015610a8c573d6000803e3d6000fd5b50505050565b600160009054906101000a900473ffffffffffffffffffffffffffffffffffffffff1673ffffffffffffffffffffffffffffffffffffffff166342966c68826040518263ffffffff1660e01b8152600401610aed9190612174565b600060405180830381600087803b158015610b0757600080fd5b505af1158015610b1b573d6000803e3d6000fd5b5050505050565b600160009054906101000a900473ffffffffffffffffffffffffffffffffffffffff1673ffffffffffffffffffffffffffffffffffffffff1663492d306b826040518263ffffffff1660e01b8152600401610b7d919061211a565b600060405180830381600087803b158015610b9757600080fd5b505af1158015610bab573d6000803e3d6000fd5b5050505050565b600160009054906101000a900473ffffffffffffffffffffffffffffffffffffffff1681565b600260009054906101000a900473ffffffffffffffffffffffffffffffffffffffff1681565b600260009054906101000a900473ffffffffffffffffffffffffffffffffffffffff1673ffffffffffffffffffffffffffffffffffffffff16638456cb596040518163ffffffff1660e01b8152600401600060405180830381600087803b158015610c6857600080fd5b505af1158015610c7c573d6000803e3d6000fd5b50505050565b3373ffffffffffffffffffffffffffffffffffffffff1660008054906101000a900473ffffffffffffffffffffffffffffffffffffffff1673ffffffffffffffffffffffffffffffffffffffff1614610d10576040517f08c379a0000000000000000000000000000000000000000000000000000000008152600401610d0790611b4d565b60405180910390fd5b600073ffffffffffffffffffffffffffffffffffffffff168173ffffffffffffffffffffffffffffffffffffffff1603610d7f576040517f08c379a0000000000000000000000000000000000000000000000000000000008152600401610d7690612201565b60405180910390fd5b806000806101000a81548173ffffffffffffffffffffffffffffffffffffffff021916908373ffffffffffffffffffffffffffffffffffffffff16021790555050565b600381805160208101820180518482526020830160208501208183528095505050505050600091509050806000018054610dfb90611e75565b80601f0160208091040260200160405190810160405280929190818152602001828054610e2790611e75565b8015610e745780601f10610e4957610100808354040283529160200191610e74565b820191906000526020600020905b815481529060010190602001808311610e5757829003601f168201915b5050505050908060010154908060020154908060030160009054906101000a900473ffffffffffffffffffffffffffffffffffffffff16905084565b600160009054906101000a900473ffffffffffffffffffffffffffffffffffffffff1673ffffffffffffffffffffffffffffffffffffffff1663a3fbbaae826040518263ffffffff1660e01b8152600401610f0b919061198c565b600060405180830381600087803b158015610f2557600080fd5b505af1158015610f39573d6000803e3d6000fd5b5050505050565b3373ffffffffffffffffffffffffffffffffffffffff1660008054906101000a900473ffffffffffffffffffffffffffffffffffffffff1673ffffffffffffffffffffffffffffffffffffffff1614610fce576040517f08c379a0000000000000000000000000000000000000000000000000000000008152600401610fc590611b4d565b60405180910390fd5b600073ffffffffffffffffffffffffffffffffffffffff16600260009054906101000a900473ffffffffffffffffffffffffffffffffffffffff1673ffffffffffffffffffffffffffffffffffffffff161461105f576040517f08c379a00000000000000000000000000000000000000000000000000000000081526004016110569061226d565b60405180910390fd5b600073ffffffffffffffffffffffffffffffffffffffff168173ffffffffffffffffffffffffffffffffffffffff16036110ce576040517f08c379a00000000000000000000000000000000000000000000000000000000081526004016110c5906122d9565b60405180910390fd5b80600260006101000a81548173ffffffffffffffffffffffffffffffffffffffff021916908373ffffffffffffffffffffffffffffffffffffffff16021790555050565b600260009054906101000a900473ffffffffffffffffffffffffffffffffffffffff1673ffffffffffffffffffffffffffffffffffffffff1663d547741f83836040518363ffffffff1660e01b815260040161116f92919061214b565b600060405180830381600087803b15801561118957600080fd5b505af115801561119d573d6000803e3d6000fd5b505050505050565b60008054906101000a900473ffffffffffffffffffffffffffffffffffffffff1681565b6000604051905090565b600080fd5b600080fd5b600073ffffffffffffffffffffffffffffffffffffffff82169050919050565b6000611208826111dd565b9050919050565b611218816111fd565b811461122357600080fd5b50565b6000813590506112358161120f565b92915050565b6000819050919050565b61124e8161123b565b811461125957600080fd5b50565b60008135905061126b81611245565b92915050565b60008060408385031215611288576112876111d3565b5b600061129685828601611226565b92505060206112a78582860161125c565b9150509250929050565b600080fd5b600080fd5b6000601f19601f8301169050919050565b7f4e487b7100000000000000000000000000000000000000000000000000000000600052604160045260246000fd5b611304826112bb565b810181811067ffffffffffffffff82111715611323576113226112cc565b5b80604052505050565b60006113366111c9565b905061134282826112fb565b919050565b600067ffffffffffffffff821115611362576113616112cc565b5b61136b826112bb565b9050602081019050919050565b82818337600083830152505050565b600061139a61139584611347565b61132c565b9050828152602081018484840111156113b6576113b56112b6565b5b6113c1848285611378565b509392505050565b600082601f8301126113de576113dd6112b1565b5b81356113ee848260208601611387565b91505092915050565b60008060008060808587031215611411576114106111d3565b5b600061141f87828801611226565b94505060206114308782880161125c565b935050604085013567ffffffffffffffff811115611451576114506111d8565b5b61145d878288016113c9565b925050606061146e8782880161125c565b91505092959194509250565b600067ffffffffffffffff821115611495576114946112cc565b5b602082029050602081019050919050565b600080fd5b60006114be6114b98461147a565b61132c565b905080838252602082019050602084028301858111156114e1576114e06114a6565b5b835b8181101561150a57806114f68882611226565b8452602084019350506020810190506114e3565b5050509392505050565b600082601f830112611529576115286112b1565b5b81356115398482602086016114ab565b91505092915050565b600067ffffffffffffffff82111561155d5761155c6112cc565b5b602082029050602081019050919050565b600061158161157c84611542565b61132c565b905080838252602082019050602084028301858111156115a4576115a36114a6565b5b835b818110156115cd57806115b9888261125c565b8452602084019350506020810190506115a6565b5050509392505050565b600082601f8301126115ec576115eb6112b1565b5b81356115fc84826020860161156e565b91505092915050565b600080600080600060a08688031215611621576116206111d3565b5b600086013567ffffffffffffffff81111561163f5761163e6111d8565b5b61164b888289016113c9565b955050602086013567ffffffffffffffff81111561166c5761166b6111d8565b5b61167888828901611514565b945050604086013567ffffffffffffffff811115611699576116986111d8565b5b6116a5888289016115d7565b93505060606116b688828901611226565b92505060806116c78882890161125c565b9150509295509295909350565b6000819050919050565b6116e7816116d4565b81146116f257600080fd5b50565b600081359050611704816116de565b92915050565b60008060408385031215611721576117206111d3565b5b600061172f858286016116f5565b925050602061174085828601611226565b9150509250929050565b6000602082840312156117605761175f6111d3565b5b600061176e8482850161125c565b91505092915050565b60006020828403121561178d5761178c6111d3565b5b600082013567ffffffffffffffff8111156117ab576117aa6111d8565b5b6117b7848285016113c9565b91505092915050565b6000819050919050565b60006117e56117e06117db846111dd565b6117c0565b6111dd565b9050919050565b60006117f7826117ca565b9050919050565b6000611809826117ec565b9050919050565b611819816117fe565b82525050565b60006020820190506118346000830184611810565b92915050565b6000611845826117ec565b9050919050565b6118558161183a565b82525050565b6000602082019050611870600083018461184c565b92915050565b60006020828403121561188c5761188b6111d3565b5b600061189a84828501611226565b91505092915050565b600081519050919050565b600082825260208201905092915050565b60005b838110156118dd5780820151818401526020810190506118c2565b60008484015250505050565b60006118f4826118a3565b6118fe81856118ae565b935061190e8185602086016118bf565b611917816112bb565b840191505092915050565b61192b8161123b565b82525050565b61193a816111fd565b82525050565b6000608082019050818103600083015261195a81876118e9565b90506119696020830186611922565b6119766040830185611922565b6119836060830184611931565b95945050505050565b60006020820190506119a16000830184611931565b92915050565b60006040820190506119bc6000830185611931565b6119c96020830184611922565b9392505050565b600081905092915050565b60006119e6826118a3565b6119f081856119d0565b9350611a008185602086016118bf565b80840191505092915050565b6000611a1882846119db565b915081905092915050565b7f50726f6a6563742f746b6964206d69736d617463680000000000000000000000600082015250565b6000611a596015836118ae565b9150611a6482611a23565b602082019050919050565b60006020820190508181036000830152611a8881611a4c565b9050919050565b6000608082019050611aa46000830187611931565b611ab16020830186611922565b8181036040830152611ac381856118e9565b9050611ad26060830184611922565b95945050505050565b7f50726f6a6563744465706c6f7965723a206f6e6c792061646d696e2063616e2060008201527f61636365737320746869732066756e6374696f6e000000000000000000000000602082015250565b6000611b376034836118ae565b9150611b4282611adb565b604082019050919050565b60006020820190508181036000830152611b6681611b2a565b9050919050565b600081519050611b7c81611245565b92915050565b600060208284031215611b9857611b976111d3565b5b6000611ba684828501611b6d565b91505092915050565b7f4578697374696e67207472656520636f756e74206d6f72650000000000000000600082015250565b6000611be56018836118ae565b9150611bf082611baf565b602082019050919050565b60006020820190508181036000830152611c1481611bd8565b9050919050565b7f726563657069656e74206e756d62657220616e6420726563657069656e74536860008201527f6172657300000000000000000000000000000000000000000000000000000000602082015250565b6000611c776024836118ae565b9150611c8282611c1b565b604082019050919050565b60006020820190508181036000830152611ca681611c6a565b9050919050565b7f4e487b7100000000000000000000000000000000000000000000000000000000600052603260045260246000fd5b7f4e487b7100000000000000000000000000000000000000000000000000000000600052601160045260246000fd5b6000611d168261123b565b9150611d218361123b565b9250828201905080821115611d3957611d38611cdc565b5b92915050565b60006bffffffffffffffffffffffff82169050919050565b6000611d6282611d3f565b91506bffffffffffffffffffffffff8203611d8057611d7f611cdc565b5b600182019050919050565b7f496e76616c696420726563697069656e7453686172652064697374726962757460008201527f696f6e0000000000000000000000000000000000000000000000000000000000602082015250565b6000611de76023836118ae565b9150611df282611d8b565b604082019050919050565b60006020820190508181036000830152611e1681611dda565b9050919050565b6000604082019050611e326000830185611922565b611e3f6020830184611931565b9392505050565b7f4e487b7100000000000000000000000000000000000000000000000000000000600052602260045260246000fd5b60006002820490506001821680611e8d57607f821691505b602082108103611ea057611e9f611e46565b5b50919050565b60008190508160005260206000209050919050565b60006020601f8301049050919050565b600082821b905092915050565b600060088302611f087fffffffffffffffffffffffffffffffffffffffffffffffffffffffffffffffff82611ecb565b611f128683611ecb565b95508019841693508086168417925050509392505050565b6000611f45611f40611f3b8461123b565b6117c0565b61123b565b9050919050565b6000819050919050565b611f5f83611f2a565b611f73611f6b82611f4c565b848454611ed8565b825550505050565b600090565b611f88611f7b565b611f93818484611f56565b505050565b5b81811015611fb757611fac600082611f80565b600181019050611f99565b5050565b601f821115611ffc57611fcd81611ea6565b611fd684611ebb565b81016020851015611fe5578190505b611ff9611ff185611ebb565b830182611f98565b50505b505050565b600082821c905092915050565b600061201f60001984600802612001565b1980831691505092915050565b6000612038838361200e565b9150826002028217905092915050565b612051826118a3565b67ffffffffffffffff81111561206a576120696112cc565b5b6120748254611e75565b61207f828285611fbb565b600060209050601f8311600181146120b257600084156120a0578287015190505b6120aa858261202c565b865550612112565b601f1984166120c086611ea6565b60005b828110156120e8578489015182556001820191506020850194506020810190506120c3565b868310156121055784890151612101601f89168261200e565b8355505b6001600288020188555050505b505050505050565b6000602082019050818103600083015261213481846118e9565b905092915050565b612145816116d4565b82525050565b6000604082019050612160600083018561213c565b61216d6020830184611931565b9392505050565b60006020820190506121896000830184611922565b92915050565b7f50726f6a6563744465706c6f7965723a2061646d696e2061646472657373206360008201527f616e6e6f74206265203000000000000000000000000000000000000000000000602082015250565b60006121eb602a836118ae565b91506121f68261218f565b604082019050919050565b6000602082019050818103600083015261221a816121de565b9050919050565b7f4741546f6b656e20616c72656164792073657400000000000000000000000000600082015250565b60006122576013836118ae565b915061226282612221565b602082019050919050565b600060208201905081810360008301526122868161224a565b9050919050565b7f546f6b656e20616464726573732063616e6e6f74206265203000000000000000600082015250565b60006122c36019836118ae565b91506122ce8261228d565b602082019050919050565b600060208201905081810360008301526122f2816122b6565b905091905056fea264697066735822122004e29f2f2a6dd0ea2abe89f7d5ee7d3735ca817f70c820b1bcd0ec0d7a8ff57564736f6c63430008140033",
  "linkReferences": {},
  "deployedLinkReferences": {}
}